{
  "_format": "hh-sol-artifact-1",
  "contractName": "Complex",
  "sourceName": "test/examples/contracts/Complex.sol",
  "abi": [
    {
      "inputs": [
        {
          "internalType": "uint256",
          "name": "_foo",
          "type": "uint256"
        },
        {
          "internalType": "bytes32",
          "name": "_foobar",
          "type": "bytes32"
        }
      ],
      "stateMutability": "nonpayable",
      "type": "constructor"
    },
    {
      "anonymous": false,
      "inputs": [
        {
          "indexed": false,
          "internalType": "uint256",
          "name": "foo",
          "type": "uint256"
        },
        {
          "indexed": false,
          "internalType": "address",
          "name": "person",
          "type": "address"
        }
      ],
      "name": "Bar",
      "type": "event"
    },
    {
      "anonymous": false,
      "inputs": [
        {
          "indexed": false,
          "internalType": "bool",
          "name": "fooboo",
          "type": "bool"
        },
        {
          "indexed": false,
          "internalType": "uint256",
          "name": "foo",
          "type": "uint256"
        },
        {
          "indexed": false,
          "internalType": "bytes32",
          "name": "foobar",
          "type": "bytes32"
        }
      ],
      "name": "FooBar",
      "type": "event"
    },
    {
      "inputs": [],
      "name": "getBarFoo",
      "outputs": [
        {
          "internalType": "bool",
          "name": "",
          "type": "bool"
        }
      ],
      "stateMutability": "view",
      "type": "function"
    },
    {
      "inputs": [],
      "name": "getBoth",
      "outputs": [
        {
          "internalType": "uint256",
          "name": "",
          "type": "uint256"
        },
        {
          "internalType": "bytes32",
          "name": "",
          "type": "bytes32"
        }
      ],
      "stateMutability": "view",
      "type": "function"
    },
    {
      "inputs": [],
      "name": "getBroAndBroBro",
      "outputs": [
        {
          "internalType": "uint256",
          "name": "bro",
          "type": "uint256"
        },
        {
          "internalType": "bytes32",
          "name": "broBro",
          "type": "bytes32"
        }
      ],
      "stateMutability": "view",
      "type": "function"
    },
    {
      "inputs": [],
      "name": "getFooBar",
      "outputs": [
        {
          "internalType": "bytes32",
          "name": "",
          "type": "bytes32"
        }
      ],
      "stateMutability": "view",
      "type": "function"
    },
    {
      "inputs": [
        {
          "internalType": "uint256",
          "name": "_fooboo",
          "type": "uint256"
        }
      ],
      "name": "getFooBoo",
      "outputs": [
        {
          "internalType": "uint256",
          "name": "fooBoo",
          "type": "uint256"
        }
      ],
      "stateMutability": "pure",
      "type": "function"
    },
    {
      "inputs": [
        {
          "internalType": "bool",
          "name": "_barFoo",
          "type": "bool"
        }
      ],
      "name": "setBarFoo",
      "outputs": [],
      "stateMutability": "nonpayable",
      "type": "function"
    },
    {
      "inputs": [
        {
          "internalType": "uint256",
          "name": "_foo",
          "type": "uint256"
        }
      ],
      "name": "setFoo",
      "outputs": [],
      "stateMutability": "nonpayable",
      "type": "function"
    },
    {
      "inputs": [
        {
          "internalType": "bytes32",
          "name": "_foobar",
          "type": "bytes32"
        }
      ],
      "name": "setFooBar",
      "outputs": [],
      "stateMutability": "nonpayable",
      "type": "function"
    }
  ],
  "bytecode": "0x608060405234801561001057600080fd5b506040516105a03803806105a083398181016040528101906100329190610071565b816000819055508060018190555050506100ef565b600081519050610056816100c1565b92915050565b60008151905061006b816100d8565b92915050565b6000806040838503121561008457600080fd5b60006100928582860161005c565b92505060206100a385828601610047565b9150509250929050565b6000819050919050565b6000819050919050565b6100ca816100ad565b81146100d557600080fd5b50565b6100e1816100b7565b81146100ec57600080fd5b50565b6104a2806100fe6000396000f3fe608060405234801561001057600080fd5b50600436106100885760003560e01c80639aa7c1201161005b5780639aa7c12014610105578063b17e413b14610121578063cfd91f2b14610151578063dc80035d1461016f57610088565b80631b85502e1461008d57806354fcb8a6146100ac5780637b07059b146100ca57806393affe51146100e6575b600080fd5b61009561018b565b6040516100a3929190610359565b60405180910390f35b6100b46101a8565b6040516100c19190610308565b60405180910390f35b6100e460048036038101906100df9190610289565b6101bf565b005b6100ee6101c9565b6040516100fc929190610359565b60405180910390f35b61011f600480360381019061011a9190610260565b6101da565b005b61013b600480360381019061013691906102b2565b6101f7565b604051610148919061033e565b60405180910390f35b61015961020d565b6040516101669190610323565b60405180910390f35b610189600480360381019061018491906102b2565b610217565b005b600080602a60005461019d9190610382565b600154915091509091565b6000600260009054906101000a900460ff16905090565b8060018190555050565b600080600054600154915091509091565b80600260006101000a81548160ff02191690831515021790555050565b6000602a826102069190610382565b9050919050565b6000600154905090565b8060008190555050565b60008135905061023081610427565b92915050565b6000813590506102458161043e565b92915050565b60008135905061025a81610455565b92915050565b60006020828403121561027257600080fd5b600061028084828501610221565b91505092915050565b60006020828403121561029b57600080fd5b60006102a984828501610236565b91505092915050565b6000602082840312156102c457600080fd5b60006102d28482850161024b565b91505092915050565b6102e4816103d8565b82525050565b6102f3816103e4565b82525050565b610302816103ee565b82525050565b600060208201905061031d60008301846102db565b92915050565b600060208201905061033860008301846102ea565b92915050565b600060208201905061035360008301846102f9565b92915050565b600060408201905061036e60008301856102f9565b61037b60208301846102ea565b9392505050565b600061038d826103ee565b9150610398836103ee565b9250827fffffffffffffffffffffffffffffffffffffffffffffffffffffffffffffffff038211156103cd576103cc6103f8565b5b828201905092915050565b60008115159050919050565b6000819050919050565b6000819050919050565b7f4e487b7100000000000000000000000000000000000000000000000000000000600052601160045260246000fd5b610430816103d8565b811461043b57600080fd5b50565b610447816103e4565b811461045257600080fd5b50565b61045e816103ee565b811461046957600080fd5b5056fea26469706673582212200164ee08e82377ff930626f23a7743fa6979b2ffb32df0b70700d383c4ba129b64736f6c63430008000033",
  "linkReferences": {},
  "deployedLinkReferences": {}
}