{
  "_format": "hh-sol-artifact-1",
  "contractName": "EventTester",
  "sourceName": "test/examples/contracts/EventTester.sol",
  "abi": [
    {
      "anonymous": false,
      "inputs": [
        {
          "indexed": false,
          "internalType": "uint256",
          "name": "num",
          "type": "uint256"
        },
        {
          "indexed": false,
          "internalType": "bytes32",
          "name": "data",
          "type": "bytes32"
        }
      ],
      "name": "Simple",
      "type": "event"
    },
    {
      "anonymous": false,
      "inputs": [
        {
          "indexed": true,
          "internalType": "uint256",
          "name": "num",
          "type": "uint256"
        },
        {
          "indexed": true,
          "internalType": "bytes32",
          "name": "data",
          "type": "bytes32"
        },
        {
          "indexed": false,
          "internalType": "uint256",
          "name": "otherNum",
          "type": "uint256"
        }
      ],
      "name": "SimpleIndex",
      "type": "event"
    },
    {
      "inputs": [
        {
          "internalType": "bytes32",
          "name": "data",
          "type": "bytes32"
        }
      ],
      "name": "simple",
      "outputs": [],
      "stateMutability": "nonpayable",
      "type": "function"
    },
    {
      "inputs": [
        {
          "internalType": "bytes32",
          "name": "data",
          "type": "bytes32"
        }
      ],
      "name": "simpleIndex",
      "outputs": [],
      "stateMutability": "nonpayable",
      "type": "function"
    }
  ],
  "bytecode": "0x608060405234801561001057600080fd5b50610201806100206000396000f3fe608060405234801561001057600080fd5b50600436106100365760003560e01c806320ea78c21461003b578063501064b114610057575b600080fd5b61005560048036038101906100509190610103565b610073565b005b610071600480360381019061006c9190610103565b6100b1565b005b80602e7f19b371547290015adfae6dcaca963a36dc2d8e4e9e55ce823b829d747efde90f602a6040516100a6919061014a565b60405180910390a350565b7f906950f44e189193819a60a8ce35a53a0aee725af98bc984839c89d8fa2e09dd602a826040516100e3929190610165565b60405180910390a150565b6000813590506100fd816101b4565b92915050565b60006020828403121561011557600080fd5b6000610123848285016100ee565b91505092915050565b6101358161018e565b82525050565b610144816101a2565b82525050565b600060208201905061015f600083018461013b565b92915050565b600060408201905061017a600083018561013b565b610187602083018461012c565b9392505050565b6000819050919050565b6000819050919050565b60006101ad82610198565b9050919050565b6101bd8161018e565b81146101c857600080fd5b5056fea2646970667358221220515d771af4bb3c9c9c9cc14c768b209577e561316395f54f6e2a8a39804ff9b464736f6c63430008000033",
  "linkReferences": {},
  "deployedLinkReferences": {}
}