{
  "_format": "hh-sol-artifact-1",
  "contractName": "AddressTester",
  "sourceName": "test/examples/contracts/AddressTester.sol",
  "abi": [
    {
      "inputs": [
        {
          "internalType": "address",
          "name": "a",
          "type": "address"
        }
      ],
      "name": "get",
      "outputs": [
        {
          "internalType": "address",
          "name": "",
          "type": "address"
        }
      ],
      "stateMutability": "pure",
      "type": "function"
    }
  ],
  "bytecode": "0x608060405234801561001057600080fd5b50610151806100206000396000f3fe608060405234801561001057600080fd5b506004361061002b5760003560e01c8063c2bc2efc14610030575b600080fd5b61004a6004803603810190610045919061007f565b610060565b60405161005791906100b7565b60405180910390f35b6000819050919050565b60008135905061007981610104565b92915050565b60006020828403121561009157600080fd5b600061009f8482850161006a565b91505092915050565b6100b1816100d2565b82525050565b60006020820190506100cc60008301846100a8565b92915050565b60006100dd826100e4565b9050919050565b600073ffffffffffffffffffffffffffffffffffffffff82169050919050565b61010d816100d2565b811461011857600080fd5b5056fea2646970667358221220036d391fd1398cc7ba7bdcacf0ee200b97d40c65d09cafcd23348d65f05d1c7564736f6c63430008000033",
  "linkReferences": {},
  "deployedLinkReferences": {}
}