{
  "_format": "hh-sol-artifact-1",
  "contractName": "ArrayTester",
  "sourceName": "test/examples/contracts/ArrayTester.sol",
  "abi": [
    {
      "inputs": [
        {
          "internalType": "uint256[]",
          "name": "ints",
          "type": "uint256[]"
        }
      ],
      "name": "dynamicUint",
      "outputs": [
        {
          "internalType": "uint256[]",
          "name": "",
          "type": "uint256[]"
        }
      ],
      "stateMutability": "pure",
      "type": "function"
    },
    {
      "inputs": [
        {
          "internalType": "uint256[5]",
          "name": "ints",
          "type": "uint256[5]"
        }
      ],
      "name": "staticUint",
      "outputs": [
        {
          "internalType": "uint256[5]",
          "name": "",
          "type": "uint256[5]"
        }
      ],
      "stateMutability": "pure",
      "type": "function"
    }
  ],
  "bytecode": "0x608060405234801561001057600080fd5b506104fe806100206000396000f3fe608060405234801561001057600080fd5b50600436106100365760003560e01c80635cfd038d1461003b5780635d4e03421461006b575b600080fd5b6100556004803603810190610050919061020c565b61009b565b6040516100629190610352565b60405180910390f35b61008560048036038101906100809190610235565b6100ab565b604051610092919061036d565b60405180910390f35b6100a36100b5565b819050919050565b6060819050919050565b6040518060a00160405280600590602082028036833780820191505090505090565b60006100ea6100e5846103c0565b61038f565b9050808285602086028201111561010057600080fd5b60005b85811015610130578161011688826101f7565b845260208401935060208301925050600181019050610103565b5050509392505050565b600061014d610148846103e6565b61038f565b9050808382526020820190508285602086028201111561016c57600080fd5b60005b8581101561019c578161018288826101f7565b84526020840193506020830192505060018101905061016f565b5050509392505050565b600082601f8301126101b757600080fd5b60056101c48482856100d7565b91505092915050565b600082601f8301126101de57600080fd5b81356101ee84826020860161013a565b91505092915050565b600081359050610206816104b1565b92915050565b600060a0828403121561021e57600080fd5b600061022c848285016101a6565b91505092915050565b60006020828403121561024757600080fd5b600082013567ffffffffffffffff81111561026157600080fd5b61026d848285016101cd565b91505092915050565b60006102828383610343565b60208301905092915050565b6102978161042c565b6102a1818461045c565b92506102ac82610412565b8060005b838110156102dd5781516102c48782610276565b96506102cf83610442565b9250506001810190506102b0565b505050505050565b60006102f082610437565b6102fa8185610467565b93506103058361041c565b8060005b8381101561033657815161031d8882610276565b97506103288361044f565b925050600181019050610309565b5085935050505092915050565b61034c81610478565b82525050565b600060a082019050610367600083018461028e565b92915050565b6000602082019050818103600083015261038781846102e5565b905092915050565b6000604051905081810181811067ffffffffffffffff821117156103b6576103b5610482565b5b8060405250919050565b600067ffffffffffffffff8211156103db576103da610482565b5b602082029050919050565b600067ffffffffffffffff82111561040157610400610482565b5b602082029050602081019050919050565b6000819050919050565b6000819050602082019050919050565b600060059050919050565b600081519050919050565b6000602082019050919050565b6000602082019050919050565b600081905092915050565b600082825260208201905092915050565b6000819050919050565b7f4e487b7100000000000000000000000000000000000000000000000000000000600052604160045260246000fd5b6104ba81610478565b81146104c557600080fd5b5056fea2646970667358221220aa65dcbfafcd4c7a39791e2a8a3f43f4b93a6ed44a4469ef13985d3cf52f908c64736f6c63430008000033",
  "linkReferences": {},
  "deployedLinkReferences": {}
}